{
	"_format": "hh-sol-artifact-1",
	"contractName": "MessagePortal",
	"sourceName": "contracts/MessagePortal.sol",
	"abi": [
		{
			"inputs": [],
			"stateMutability": "payable",
			"type": "constructor"
		},
		{
			"anonymous": false,
			"inputs": [
				{
					"indexed": true,
					"internalType": "address",
					"name": "from",
					"type": "address"
				},
				{
					"indexed": false,
					"internalType": "uint256",
					"name": "timestamp",
					"type": "uint256"
				},
				{
					"indexed": false,
					"internalType": "string",
					"name": "message",
					"type": "string"
				}
			],
			"name": "NewMessage",
			"type": "event"
		},
		{
			"inputs": [],
			"name": "getAllMessages",
			"outputs": [
				{
					"components": [
						{
							"internalType": "address",
							"name": "visitor",
							"type": "address"
						},
						{
							"internalType": "string",
							"name": "message",
							"type": "string"
						},
						{
							"internalType": "uint256",
							"name": "timestamp",
							"type": "uint256"
						}
					],
					"internalType": "struct MessagePortal.Message[]",
					"name": "",
					"type": "tuple[]"
				}
			],
			"stateMutability": "view",
			"type": "function"
		},
		{
			"inputs": [
				{
					"internalType": "string",
					"name": "_message",
					"type": "string"
				}
			],
			"name": "send",
			"outputs": [],
			"stateMutability": "nonpayable",
			"type": "function"
		}
	],
	"bytecode": "0x6080604052610aa3806100136000396000f3fe608060405234801561001057600080fd5b50600436106100365760003560e01c806353f5e3801461003b57806366792ba114610059575b600080fd5b610043610075565b6040516100509190610723565b60405180910390f35b610073600480360381019061006e91906104ec565b6101c6565b005b60606000805480602002602001604051908101604052809291908181526020016000905b828210156101bd57838290600052602060002090600302016040518060600160405290816000820160009054906101000a900473ffffffffffffffffffffffffffffffffffffffff1673ffffffffffffffffffffffffffffffffffffffff1673ffffffffffffffffffffffffffffffffffffffff168152602001600182018054610122906108fa565b80601f016020809104026020016040519081016040528092919081815260200182805461014e906108fa565b801561019b5780601f106101705761010080835404028352916020019161019b565b820191906000526020600020905b81548152906001019060200180831161017e57829003601f168201915b5050505050815260200160028201548152505081526020019060010190610099565b50505050905090565b600060405180606001604052803373ffffffffffffffffffffffffffffffffffffffff16815260200183815260200142815250908060018154018082558091505060019003906000526020600020906003020160009091909190915060008201518160000160006101000a81548173ffffffffffffffffffffffffffffffffffffffff021916908373ffffffffffffffffffffffffffffffffffffffff16021790555060208201518160010190805190602001906102859291906103e1565b506040820151816002015550506000655af3107a40009050478111156102e0576040517f08c379a00000000000000000000000000000000000000000000000000000000081526004016102d790610745565b60405180910390fd5b60003373ffffffffffffffffffffffffffffffffffffffff16826040516103069061070e565b60006040518083038185875af1925050503d8060008114610343576040519150601f19603f3d011682016040523d82523d6000602084013e610348565b606091505b505090508061038c576040517f08c379a000000000000000000000000000000000000000000000000000000000815260040161038390610765565b60405180910390fd5b3373ffffffffffffffffffffffffffffffffffffffff167f0ff94fec3112de81726d79117e091c7c9d47da8a38c73e8cec7ee350a61898a642856040516103d4929190610785565b60405180910390a2505050565b8280546103ed906108fa565b90600052602060002090601f01602090048101928261040f5760008555610456565b82601f1061042857805160ff1916838001178555610456565b82800160010185558215610456579182015b8281111561045557825182559160200191906001019061043a565b5b5090506104639190610467565b5090565b5b80821115610480576000816000905550600101610468565b5090565b6000610497610492846107da565b6107b5565b9050828152602081018484840111156104af57600080fd5b6104ba8482856108b8565b509392505050565b600082601f8301126104d357600080fd5b81356104e3848260208601610484565b91505092915050565b6000602082840312156104fe57600080fd5b600082013567ffffffffffffffff81111561051857600080fd5b610524848285016104c2565b91505092915050565b600061053983836106a0565b905092915050565b61054a8161087c565b82525050565b600061055b8261081b565b610565818561083e565b9350836020820285016105778561080b565b8060005b858110156105b35784840389528151610594858261052d565b945061059f83610831565b925060208a0199505060018101905061057b565b50829750879550505050505092915050565b60006105d082610826565b6105da818561085a565b93506105ea8185602086016108c7565b6105f3816109bb565b840191505092915050565b600061060982610826565b610613818561086b565b93506106238185602086016108c7565b61062c816109bb565b840191505092915050565b6000610644602f8361086b565b915061064f826109cc565b604082019050919050565b600061066760288361086b565b915061067282610a1b565b604082019050919050565b600061068a60008361084f565b915061069582610a6a565b600082019050919050565b60006060830160008301516106b86000860182610541565b50602083015184820360208601526106d082826105c5565b91505060408301516106e560408601826106f0565b508091505092915050565b6106f9816108ae565b82525050565b610708816108ae565b82525050565b60006107198261067d565b9150819050919050565b6000602082019050818103600083015261073d8184610550565b905092915050565b6000602082019050818103600083015261075e81610637565b9050919050565b6000602082019050818103600083015261077e8161065a565b9050919050565b600060408201905061079a60008301856106ff565b81810360208301526107ac81846105fe565b90509392505050565b60006107bf6107d0565b90506107cb828261092c565b919050565b6000604051905090565b600067ffffffffffffffff8211156107f5576107f461098c565b5b6107fe826109bb565b9050602081019050919050565b6000819050602082019050919050565b600081519050919050565b600081519050919050565b6000602082019050919050565b600082825260208201905092915050565b600081905092915050565b600082825260208201905092915050565b600082825260208201905092915050565b60006108878261088e565b9050919050565b600073ffffffffffffffffffffffffffffffffffffffff82169050919050565b6000819050919050565b82818337600083830152505050565b60005b838110156108e55780820151818401526020810190506108ca565b838111156108f4576000848401525b50505050565b6000600282049050600182168061091257607f821691505b602082108114156109265761092561095d565b5b50919050565b610935826109bb565b810181811067ffffffffffffffff821117156109545761095361098c565b5b80604052505050565b7f4e487b7100000000000000000000000000000000000000000000000000000000600052602260045260246000fd5b7f4e487b7100000000000000000000000000000000000000000000000000000000600052604160045260246000fd5b6000601f19601f8301169050919050565b7f57697468647261776c20616d6f756e742067726561746572207468616e20636f60008201527f6e74726163742062616c616e63652e0000000000000000000000000000000000602082015250565b7f4661696c656420746f2077697468647261776c206d6f6e65792066726f6d206360008201527f6f6e74726163742e000000000000000000000000000000000000000000000000602082015250565b5056fea26469706673582212203a85dfbd3e492892c009302d8a55974633c66502d67beeeb7611c4e25852097364736f6c63430008040033",
	"linkReferences": {},
	"deployedLinkReferences": {}
}